:03000000020006F5
:03005F0002000399
:03000300020135C2
:10006200AE82AF837C007D00C3EC9EED9F501B7A75
:100072006E7B00EA24FFF8EB34FFF988028903E87B
:100082004970F00CBC00E10D80DE22AE82AF838E9F
:10009200048F051EBEFF011FEC4D70F322AF82C21A
:1000A200A6C2A58F80D2A790000512008DC2A7908C
:1000B2000002020062AF82D2A6C2A58F80D2A790B0
:1000C200000512008DC2A7900002020062AF82E515
:1000D2000870088F0674802EFE800474C02FFE8E76
:1000E2008202009FAD82AE83AFF08D828E838FF04D
:1000F20012015EFC60188C820DBD00010EC007C0AB
:1001020006C0051200B7D005D006D00780DC2290C9
:10011200000F12006275823812009F75820C120065
:100122009F75820612009F75820112009F90000245
:100132000200621201117508007582001200CF9050
:10014200017E75F0801200E67508017582001200CA
:0C015200CF90018B75F0801200E680FE5B
:10017E00433531204C6561726E696E67006279207D
:0C018E0053444343202B20547261650051
:06003500E478FFF6D8FD9F
:100013007900E94400601B7A0090019A780175A089
:1000230000E493F2A308B8000205A0D9F4DAF2754C
:02003300A0FF2C
:10003B007800E84400600A790175A000E4F309D860
:10004B00FC7800E84400600C7900900001E4F0A318
:04005B00D8FCD9FAFA
:0D00060075810812017AE582600302000393
:10015E0020F71430F6148883A88220F507E6A883CA
:10016E0075830022E280F7E49322E022758200225A
:00000001FF
