:04000000020029329F
:01000B0032C2
:0100130032BA
:01001B0032B2
:030023000200FCDC
:0300820002002653
:0300260002011ABA
:10008500AE82AF837C007D00C3EC9EED9F501B7A52
:100095006E7B00EA24FFF8EB34FFF988028903E858
:1000A5004970F00CBC00E10D80DE22E589540F4457
:1000B50020F589758DFD758BFD759850D28ED2AC66
:1000C500D2AF2285829910990280FB22AD82AE8340
:1000D500AFF08D828E838FF0120136FC60188C8212
:1000E5000DBD00010EC007C006C0051200C8D00531
:1000F500D006D00780DC22C0E0109802800F8599D9
:100105009910990280FBE5A0F4F5A08005109902ED
:100115008000D0E0321200B075A0FE90015675F057
:10012500801200D19001F4120085E5A023F5A0808E
:01013500F3D6
:1001560048656C6C6F2066726F6D20535443383956
:10016600433532212053656E6420616E79206279B1
:0E017600746520746F206563686F2E0D0A009B
:06005800E478FFF6D8FD7C
:100036007900E94400601B7A00900184780175A07C
:1000460000E493F2A308B8000205A0D9F4DAF27529
:02005600A0FF09
:10005E007800E84400600A790175A000E4F309D83D
:10006E00FC7800E84400600C7900900001E4F0A3F5
:04007E00D8FCD9FAD7
:0D002900758107120152E582600302002676
:1001360020F71430F6148883A88220F507E6A883F2
:1001460075830022E280F7E49322E0227582002282
:00000001FF
