:03000000020006F5
:03005F0002000399
:0300030002008D6B
:10006200AE82AF837C007D00C3EC9EED9F501B7A75
:100072006E7B00EA24FFF8EB34FFF988028903E87B
:100082004970F00CBC00E10D80DE227FFE7E007C18
:100092002C7D018FA08C828D83C007C006C005C055
:1000A20004120062D004D005D006D007EE700AEF29
:1000B20023FFBF7F0C7E018008EF03FFBFFE027E9D
:1000C2000020B024900014C007C006C005C004126E
:1000D2000062D004D005D006D00720B00BEEB401E8
:1000E20000E433FBFE30B0FD20B1A8900014C0073D
:1000F200C006C005C004120062D004D005D006D0EC
:100102000730B103020095BC2C09BD01067C967D27
:10011200008010BC9609BD00067C587D0280047CDC
:090122002C7D0130B1FD020095B5
:06003500E478FFF6D8FD9F
:100013007900E94400601B7A0090012F780175A0F4
:1000230000E493F2A308B8000205A0D9F4DAF2754C
:02003300A0FF2C
:10003B007800E84400600A790175A000E4F309D860
:10004B00FC7800E84400600C7900900001E4F0A318
:04005B00D8FCD9FAFA
:0D00060075810712012BE5826003020003E3
:04012B0075820022B7
:00000001FF
