:0400000002001132B7
:03000B000200747C
:0A006A00E4F508F509F50A02000E9E
:03000E000200AE3F
:10007400C0E0C007C006C0D075D000758C4B758A2F
:10008400FDAE08AF0974012EF508E43FF509C3E598
:10009400089406E50994004008E4F508F509750A92
:1000A40001D0D0D006D007D0E0327FFEE58954F0ED
:1000B4004401F589758C4B758AFDD2A9D2AFD28CD7
:1000C40075A0FEE50A60FC750A00EF23FF8FA0808F
:0100D400F239
:06004000E478FFF6D8FD94
:10001E007900E94400601B7A009000D9780175A040
:10002E0000E493F2A308B8000205A0D9F4DAF27541
:02003E00A0FF21
:100046007800E84400600A790175A000E4F309D855
:10005600FC7800E84400600C7900900001E4F0A30D
:04006600D8FCD9FAEF
:0D00110075810A1200D5E582600302000E21
:0400D500758200220E
:00000001FF
