:03000000020006F5
:03005F0002000399
:0300030002008D6B
:10006200AE82AF837C007D00C3EC9EED9F501B7A75
:100072006E7B00EA24FFF8EB34FFF988028903E87B
:100082004970F00CBC00E10D80DE227FFE7D2C7EEB
:10009200018FA08D828E83C007C006C00512006248
:1000A200D005D006D007EF23FF20B0E5900014C0A2
:1000B20007C006C005120062D005D006D00720B0E6
:1000C200D0BD2C09BE01067D967E008010BD96092A
:1000D200BE00067D587E0280047D2C7E0130B0FD7C
:0200E20080AFED
:06003500E478FFF6D8FD9F
:100013007900E94400601B7A009000E8780175A03C
:1000230000E493F2A308B8000205A0D9F4DAF2754C
:02003300A0FF2C
:10003B007800E84400600A790175A000E4F309D860
:10004B00FC7800E84400600C7900900001E4F0A318
:04005B00D8FCD9FAFA
:0D0006007581071200E4E58260030200032B
:0400E40075820022FF
:00000001FF
